:020000040800F2
:1000000018040020450100086D0400086F04000872
:1000100073040008770400087B0400080000000057
:100020000000000000000000000000007F04000845
:100030008104000800000000830400088504000813
:100040005F0100085F0100085F0100085F01000810
:100050005F0100085F010008870400085F010008D5
:100060005F0100085F0100085F0100085F010008F0
:100070005F0100085F0100085F0100085F010008E0
:100080005F0100085F0100085F0100085F010008D0
:100090005F0100085F0100085F0100085F010008C0
:1000A0005F0100085F0100085F0100085F010008B0
:1000B0005F0100085F0100085F0100085F010008A0
:1000C0005F0100085F0100085F0100085F01000890
:1000D0005F0100085F0100085F0100085F01000880
:1000E0005F0100085F0100085F0100085F01000870
:1000F0005F0100085F0100085F0100085F01000860
:100100005F0100085F0100085F0100085F0100084F
:100110005F0100085F0100085F0100085F0100083F
:100120005F0100085F0100085F0100085F0100082F
:10013000DFF80CD000F0B8F900480047650400086B
:10014000180400200648804706480047FEE7FEE7FF
:10015000FEE7FEE7FEE7FEE7FEE7FEE7FEE7FEE777
:1001600047020008310100080CB500200190009002
:100170006C48006840F480306A49086000BF6948F4
:10018000006800F4003000900198401C0190009835
:1001900018B90198B0F5A06FF1D16248006800F479
:1001A000003010B10120009001E000200090009884
:1001B000012843D15C48006840F010005A490860AB
:1001C0000846006820F0030008600846006840F018
:1001D0000200086053484068524948600846406839
:1001E00048600846406840F48060486008464068BF
:1001F00020F47C1048600846406840F4E8104860ED
:100200000846006840F08070086000BF45480068FC
:1002100000F000700028F9D04248406820F0030048
:10022000404948600846406840F00200486000BF0E
:100230003C48406800F00C000828F9D10CBD10B50E
:10024000FFF792FF10BD10B53648006840F001007E
:1002500034490860084640683449084031494860DC
:1002600008460068324908402E4908600846006880
:1002700020F4802008600846406820F4FE004860B2
:100280004FF41F008860FFF7DAFF4FF00060294944
:10029000086010BD10B5002100200022214B5B68D2
:1002A00003F00C0121B1042906D0082928D107E068
:1002B000214B224C236027E01F4B204C236023E07E
:1002C000184B5B6803F47010164B5B6803F48032C4
:1002D000022303EB904022B9194B4343174C236090
:1002E0000DE0104B5B6803F4003323B1144B434320
:1002F000124C236003E0104B4343104C236003E097
:100300000D4B0E4C236000BF00BF064B5B68C3F370
:1003100003130C4CE15C094B1B68CB40074C23607A
:1003200010BD000000100240002002400000FFF855
:10033000FFFFF6FE08ED00E000127A00000000204A
:1003400000093D0004000020002044490860091D08
:100350000860091D0860091D086041483F491431C3
:100360000860704700213D498279002A3AD00A4648
:10037000126803689A430B461A600A1D12680368E4
:100380009A430B1D1A60027911440A6803681A43E4
:100390000A60324A0832126803689A432F4B0833C6
:1003A0001A601A1D126803689A432C4B0C331A60AA
:1003B0004279102A0ED11A1F126803681A43274B7C
:1003C00008331A601A1D126803681A43234B0C3352
:1003D0001A600DE02149427911440A6803681A4302
:1003E0000A6005E0027911440A6803689A430A60CA
:1003F00070470021016001710C2141710021817160
:1004000070471649103109680143144A10321160CF
:10041000704701460020114A143212680A400AB19E
:10042000012000E0002070470C491431086070473B
:10043000014600200022094B1B6803EA0102074B1A
:1004400014331B680B4013B10AB1012000E00020F7
:1004500070470249143108607047000000040140F1
:10046000FFFF0F0001E000207047FCE7704700BF6E
:10047000FEE700BFFEE700BFFEE700BFFEE77047F4
:1004800070477047704710B50120FFF7D1FF28B1C2
:100490000448006880F00200024908600120FFF76C
:1004A000D8FF10BD0C0C0140064C074D06E0E0687B
:1004B00040F0010394E8070098471034AC42F6D3AB
:1004C000FFF73AFEEC0400080C05000802E008C83B
:1004D000121F08C1002AFAD170477047002001E0BE
:1004E00001C1121F002AFBD1704700000C05000853
:1004F0000000002014000000CC04000820050008C3
:100500001400002004040000DC04000800A24A04D7
:1005100000000000000000000102030406070809B3
:0400000508000131BD
:00000001FF
